:020000040800F2
:10000000E8040120DD010008E5010008E70100081F
:10001000E9010008EB010008ED0100080000000004
:10002000000000000000000000000000EF010008D8
:10003000F101000800000000F30100085108000869
:10004000F7010008F7010008F7010008F7010008B0
:10005000F7010008F7010008F7010008F7010008A0
:10006000F7010008F7010008F7010008F701000890
:10007000F7010008F7010008F7010008F701000880
:10008000F7010008F70100081D080008F701000843
:10009000F7010008F7010008F7010008F701000860
:1000A000F7010008F7010008F7010008F701000850
:1000B000F7010008F7010008F7010008F701000840
:1000C000F7010008F7010008F7010008F701000830
:1000D000F7010008F7010008F7010008F701000820
:1000E000F7010008F7010008F7010008F701000810
:1000F000F7010008F7010008F7010008F701000800
:10010000F7010008F7010008F7010008F7010008EF
:1001100085090008F7010008F7010008F701000849
:10012000F7010008F7010008F7010008F7010008CF
:10013000F7010008F7010008F7010008F7010008BF
:10014000F7010008F7010008F7010008F7010008AF
:10015000F7010008F7010008F7010008F70100089F
:10016000F7010008F7010008F7010008F70100088F
:10017000F7010008F7010008F7010008000000007F
:10018000F7010008F7010008F7010008F70100086F
:10019000F7010008F7010008F7010008F70100085F
:1001A000F7010008F7010008F7010008F70100084F
:1001B000F7010008F7010008F7010008F70100083F
:1001C000F7010008F7010008DFF80CD000F0B2FAE0
:1001D000004800478D210008E804012006488047B8
:1001E00006480047FEE7FEE7FEE7FEE7FEE7FEE71C
:1001F000FEE7FEE7FEE7FEE721090008C901000867
:100200002DE9FE4F804681EA0300C00F0C460090A6
:1002100021F0004123F00045B8EB0200A94105D2CE
:100220004046214690461C460B46024623F00040BD
:10023000104347D0270DC7F30A00C3F30A510290B9
:10024000401A019040286BDAC3F3130040F4801B7E
:100250000098924620B10023D2EB030A63EB0B0B0C
:1002600001985946C0F14002504600F097F9064601
:100270000D4650465946019A00F09FF910EB0800D0
:100280006141002487EA115284EAE7731A4340D09F
:10029000009A62B3019A012A4FEA075215DC001B4B
:1002A00061EB02014FF0004202EA0752CDE9004241
:1002B000001C41F5801132462B4600F0D6F903B000
:1002C000BDE8F08F40462146F9E7001B61EB0201D3
:1002D000001C41F5801300185B412018A2F500179F
:1002E00047EB030140EAD570B6196D4111E06D0886
:1002F0004FEA360645EAC0754FEA0752001B61EB2C
:100300000201001C41F5801149084FEA3000001934
:10031000514132462B4603B0BDE8F04F00F096B98C
:100320000098012240000023D0EB020263EBE0734F
:10033000009821464FEAE074B8EB000061EB04013D
:10034000E9E783F000435BE781F0004158E72DE9DE
:10035000FE4F81EA030404F0004421F000410094C0
:100360004FF0000B23F0004350EA01045ED052EA44
:1003700003045BD0C3F30A54C1F30A552C44A4F21E
:10038000F3340194A0FB0254C1F3130141F4801132
:10039000C3F3130343F4801301FB024400FB034E39
:1003A000840A970A44EA815447EA8357A4FB076802
:1003B00002958D0A05FB07854FEA932C04FB0C542C
:1003C0002705029D4FEA065847EA1637B5EB0805A0
:1003D0006EEB070C870E920E47EA811742EA8312F2
:1003E000A7FB0201B6EB0B0164EB00042B0D43EA03
:1003F0000C335E1844EB1C50DA465146E7FB020111
:10040000C5F313044FEA0B3343EA14534FEA0432A3
:10041000019C43EA0603A4F10C040294009CCDE97C
:1004200000B400F022F903B0BDE8F08F00200146CF
:10043000F9E72DE9F04D81EA030404F0004B21F0C7
:10044000004514464FF0000A23F0004150EA05022F
:1004500020D054EA01021DD0C5F30A570246C5F365
:100460001303C1F31300C1F30A5640F4801543F49B
:100470008013A7EB0608101BD64608F2FD3873EB75
:10048000050002D308F1010801E092185B41B8F1C0
:10049000000F03DA00200146BDE8F08D00204FF484
:1004A0008011064684460EE0171B73EB050705D343
:1004B000121B63EB050306434CEA010C49084FEAA3
:1004C000300092185B4150EA0107EDD152EA030077
:1004D00012D082EA040083EA0501084305D0101B0C
:1004E000AB4106D20122002306E000224FF0004378
:1004F00002E06FF0010253101AEB06004CEB0851BA
:1005000010EB0A0041EB0B01BDE8F04D00F09EB886
:100510000EB5C10F80EAE0700844CA07002140F21E
:1005200033438DE80E000A460B4600F09EF803B0F8
:1005300000BD000030B5041E71F1000404DB4FF073
:100540000044404264EB0101141E73F1000405DB1A
:100550001C464FF00043524263EB0403994208BF2C
:10056000904230BD01F0004330B421F0004150EA28
:10057000010206D00A0DA2F56072C1F31301002A30
:1005800002DC30BC00207047440F44EAC104C100C3
:10059000E01830BC00EBC25000F021B8202A04DB88
:1005A000203A00FA02F1002070479140C2F1200386
:1005B00020FA03F3194390407047202A06DBCB173B
:1005C000203A41FA02F043EAE07306E041FA02F30E
:1005D000D040C2F1200291400843194670470029DB
:1005E000A8BF7047401C490008BF20F001007047B9
:1005F00010B4B0FA80FC00FA0CF050EA010404BF19
:1006000010BC704749B1CCF1200421FA04F411FA6E
:100610000CF118BF012121430843A3EB0C01CB1DB2
:100620004FEA00614FEA102042BF002010BC704723
:1006300000EBC35010440029A4BF10BC7047401CFD
:10064000490008BF20F0010010BC704710B5141E0F
:1006500073F1000408DA401C41F1000192185B417B
:100660001A4301D120F0010010BD2DE9F04D924652
:100670009B4611B1B1FA81F202E0B0FA80F2203269
:100680009046FFF78BFF04460F4640EA0A0041EA16
:100690000B0153465A46084313D0114653EA010052
:1006A00019D0C8F14002504600F056F805460E46F3
:1006B000504659464246FFF771FF084305D00120D6
:1006C00004E020463946BDE8F08D0020054346EAA7
:1006D000E0762C4337430A986305E40AA0EB080050
:1006E0000022FD0A44EA47540A3002D500200146A0
:1006F000E9E7010510196941DDE90845001969417B
:10070000BDE8F04DA2E770B521F0004303430CD0E3
:10071000C1F30A550024D5EB040564EB0403D61796
:10072000AD1AB34102DB0020014670BD201841EB39
:10073000025170BD064C074D06E0E06840F0010331
:1007400094E8070098471034AC42F6D3FFF740FD19
:10075000D8260008F8260008202A04DB203A21FACF
:1007600002F00021704721FA02F3D040C2F12002CA
:1007700091400843194670472DE9F04D00231A4671
:100780001B1A8A4103DB00200146BDE8F08DC1F34E
:100790000A52C1F3130141F480154FF0000BD10749
:1007A00002D100186D41521E0027044640F2FF118D
:1007B000384601EB620A3E468046024600204FF46E
:1007C0008011FFF7C9FFC2197141BB1846EB010048
:1007D000B4EB030C75EB000C04D3E41A65EB0005D5
:1007E00017460E46241908F101006D418046342851
:1007F000E3DDF91946EB0600091BA84103D24FF0CF
:10080000FF32134601E0002213461BEB070046EBC4
:100810000A51BDE8F04DFFF719BF00000948006814
:1008200009490A4A126841F8220008480068401C39
:100830000649086008460068022801D100200860C7
:10084000704700004C220140840001200400012078
:1008500002480068401C0149086070470C000120F4
:1008600070B500200022022300240221274D2D68AC
:1008700005F00C0020B1042806D0082834D107E088
:10088000234D244E356033E0234D224E35602FE05A
:100890001E4D2D1F2D68C5F380541C4D2D1F2D6836
:1008A00005F03F0154B11C4DB5FBF1F5174E361F55
:1008B0003668C6F3881605FB06F209E0144DB5FB51
:1008C000F1F5124E361F3668C6F3881605FB06F2A0
:1008D0000E4D2D1F2D68C5F301456D1C6B00B2FB3D
:1008E000F3F50C4E356003E0094D0A4E356000BF4C
:1008F00000BF064D2D68C5F30315084E705D054D0C
:100900002D68C540034E356070BD000008380240B8
:100910000024F400DC00012040787D01DE25000881
:100920001448006840F470001249086012480068DA
:1009300040F001001049086000200F4908310860AC
:100940000D4800680D4908400B4908600C48091D16
:100950000860081F006820F48020091F086000203C
:1009600005490C3108604FF0006002498039086089
:100970007047000088ED00E000380240FFFFF6FEFF
:10098000103000241148006800F02000E0B10F484A
:100990000830006830380E490E4A126841F82200CB
:1009A0000C480068401C0B49086008460068032892
:1009B0000AD1002008600120074908700748006834
:1009C00080F0010005490860704700001C4C0040A1
:1009D000940001200800012030000120140402408E
:1009E00070B52DED0C8B0446C34800686043C349C5
:1009F000086008460068C24990FBF1F0C1490870E0
:100A0000BE480068BE4990FBF1F201FB1200BE49EE
:100A100090FBF1F0BD490870B8480068BA4990FBF6
:100A2000F1F201FB1200BA4990FBF1F0B9490870EC
:100A3000B2480068B64990FBF1F201FB120042F2A5
:100A4000107190FBF1F0B4490870AC48006842F2B4
:100A5000107190FBF1F201FB12004FF47A7190FBE0
:100A6000F1F0AE490870A74800783030A549087009
:100A7000A64800783030A5490870A6480078303084
:100A8000A4490870A44800783030A3490870A348EE
:100A900000783030A149087098480068984990FB68
:100AA000F1F52846FFF734FD9D4A03C293480068DC
:100AB000934990FBF1F201FB1200934990FBF1F591
:100AC0002846FFF725FD974A03C28C4800688E49E7
:100AD00090FBF1F201FB12008D4990FBF1F52846E5
:100AE000FFF716FD904A03C284480068884990FBCE
:100AF000F1F201FB120042F2107190FBF1F5284671
:100B0000FFF706FD894A03C29FED890B53EC102BBA
:100B1000854890ED000B51EC100BFFF718FC41ECF1
:100B20001A0B9FED850B53EC102B7E4890ED000BBC
:100B300051EC100BFFF70BFC41EC1C0B9FED800BF5
:100B400053EC102B764890ED000B51EC100BFFF797
:100B5000FEFB53EC1C2BFFF753FB53EC1A2BFFF758
:100B60004FFB41EC190B714890ED000B53EC102B2F
:100B700051EC190BFFF744FB9FED710B53EC102B5D
:100B8000FFF757FC704A03C29FED700B53EC102B1C
:100B90006D4890ED000B51EC100BFFF7D8FB9FED6B
:100BA0006D0B53EC102BFFF7CCFB9FED630B53EC5D
:100BB000102BFFF7CCFBFFF7D5FC6849086008460F
:100BC00090ED000ADFED660A80EE201ABCEEC10A45
:100BD00010EE100A63490870084600784FF47A71E5
:100BE00010FB01F000EE100AB8EEC00A5B48D0ED31
:100BF000000A30EEC00ADFED5C0A80EE201ABCEE7F
:100C0000C10A10EE100A59490870564800784FF48E
:100C10007A7110FB01F05549097801EBC10202EB32
:100C2000011100EB810000EE100AB8EEC00A4B483B
:100C3000D0ED000A30EEC00AF2EE040A80EE201A6F
:100C4000BCEEC10A10EE100A49490870302049492B
:100C500008704448007830304249087043480078B2
:100C600030304249087042480078303040490870BE
:100C700030204049087000F0B3F83A48007800F09E
:100C8000FFF83A48007800F0FBF82E2000F0F8F862
:100C90003748007800F0F4F83648007800F0F0F8B3
:100CA000202000F0EDF82D2000F0EAF8202000F0E0
:100CB000E7F81448007800F0E3F82E2000F0E0F8A0
:100CC0001248007800F0DCF81248007800F0D8F8FC
:100CD0001148007800F0D4F81048007800F0D0F8FF
:100CE000202000F0CDF82D2000F0CAF8202000F0E0
:100CF000C7F8BDEC0C8B70BDA00001208000012066
:100D000080969800B000012040420F00B100012001
:100D1000A0860100B2000120B3000120B400012030
:100D2000D0000120C8000120C0000120B80001202F
:100D300000000000000024400000000000005940B6
:100D40000000000000408F40A800012000000000CB
:100D500000405F400000000000A06940A4000120A6
:100D600000007A44D80001200000C842D9000120C8
:100D7000DA000120DB000120002809DB00F01F025F
:100D8000012191404209920002F1E022C2F80011D3
:100D900070470000002000BF14E00E49095C0E4AB5
:100DA0001170114609780D4A116000BF0B490C39CA
:100DB000096801F08001094A0C3A11600029F5D058
:100DC000411C08B2044909783D29E6D13121024A83
:100DD000117070473900012038000120284C004074
:100DE000002000BF14E00E49095C0E4A1170114644
:100DF00009780D4A116000BF0B490C39096801F0F0
:100E00008001094A0C3A11600029F5D0411C08B252
:100E1000044909783D29E6D13121024A1170704711
:100E20004D00012038000120284C00400F48104997
:100E30000968405C0F4908600F48D0F8080240F08C
:100E400080400C492C39086000BF0A4834380068DB
:100E500000F002000849C1F800020128F5D0002086
:100E600000E0401C05498842FBDB70476900012017
:100E7000040001203422014000200140400D030005
:100E80000649086000BF05490C39096801F0800176
:100E9000024A0C3A11600029F5D07047284C0040F6
:100EA00003B401984100009850EAC12018BF042003
:100EB0004A0D18BF40F0010040F2FF72B2EB515FE3
:100EC00008BF40F00200012808BF052002B07047AB
:100ED00070B5C1482DED020B2DED0E8B82B0119D2A
:100EE00025F000449FEDBEDB9FEDBFEB84423EDB6F
:100EF000A4F140511098A1F17F6108430FD0BC4884
:100F0000844202DC28D1109830B39DED100B02B062
:100F1000BDEC0E8B02B0BDE8704001F0D1B89DED84
:100F2000100B53EC1D2B51EC100BFFF710FA9DED3D
:100F3000100B41EC180B53EC1E2B51EC100BFFF770
:100F400006FA53EC182BFFF75BF941EC100B02B0DB
:100F5000BDEC0E8B02B070BD012001F005F902B0AE
:100F6000BDEC0E8B02B0BDE8704001F0BDB8A148E9
:100F70009FEDA18B844256DA9DED100BB4F1795FA1
:100F80000ADA51EC100BFFF78BFF042808BF01F0C1
:100F9000CBF89DED100BDAE753EC102B51EC100B56
:100FA000FFF7D5F941EC190B95480621B0EE490A37
:100FB000F0EE690A784400F0EFFF53EC192B51EC86
:100FC000100BFFF7C4F941EC1A0B8E48B0EE490A3A
:100FD000F0EE690A0421784400F0DEFF53EC192B8F
:100FE00051EC100BFFF7B3F953EC182BFFF708F98E
:100FF00041EC100B51EC1A0B53EC102BFFF719FAC4
:10100000CDE900019DED000B53EC102B9DED100B75
:1010100051EC100BFFF79BF99DED101B53EC112BBE
:10102000FFF7EEF8D2E09DED100B51EC100B01F044
:10103000A1F853EC182BFFF787F99FED730BCDE95F
:10104000000153EC102B9DED000B51EC100BFFF742
:101050007EF941EC190B6E480621B0EE490AF0EE1C
:10106000690A784400F098FF53EC192B51EC100BEF
:10107000FFF76DF941EC1B0B6648B0EE490AF0EE44
:10108000690A0421784400F087FF53EC192B51ECD6
:10109000100BFFF75CF953EC182BFFF7B1F841EC9C
:1010A0001C0B51EC190B01F063FA41EC180B5A4878
:1010B0009FED5BABA04222DC53EC1C2B51EC1B0BD5
:1010C000FFF7B7F9CDE900019DED000B51EC180BCE
:1010D00053EC102BFFF73BF953EC182BFFF790F86C
:1010E00053EC1A2BFFF733F953EC1D2BFFF729F9BB
:1010F00053EC1E2BFFF728F941EC100B5FE08DED50
:10110000008B002000909DED000B51EC180B53EC70
:10111000102BFFF775F89DED000B41EC1E0B53EC07
:10112000102B51EC100BFFF712F953EC192BFFF7B2
:101130000BF953EC1E2BFFF77CF941EC190B53EC28
:101140001C2B51EC1B0BFFF774F941EC1B0B53EC00
:101150001A2B51EC190BFFF7FAF853EC1D2BFFF784
:10116000F3F841EC190B53EC1A2B51EC180BFFF769
:10117000EEF853EC1B2BFFF7EAF853EC192BFFF7B3
:10118000E0F89DED000B41EC180B53EC1A2B51ECE1
:10119000100BFFF7DCF89FED249B53EC192BFFF7A6
:1011A000D3F841EC100B51EC180B53EC102BFFF75C
:1011B000C8F853EC192BFFF7C7F841EC100B002DC2
:1011C0003FF7C5AE51EC100B81F0004141EC100B24
:1011D000BDE60000000000000000F03F000000003D
:1011E000075C143326A6913C182D4454FB21F93F8B
:1011F0000000F07F0000E03F000000000000F03F32
:10120000401600004E160000000000000000E03F05
:1012100092150000A01500003333EF3F00000000DE
:101220000000000000000040182D4454FB21E93F5D
:101230002DE9F0412DED020B9FED3D0B2DED028BC5
:101240009FED3D8BDDE90254C4F30A50A0F2FF3656
:10125000142E37DA002E18DA53EC102B9DED020B0A
:1012600051EC100BFEF7CCFF53EC182BFFF762F993
:1012700057D2002CBCBF4FF00044002551DB54EA8C
:10128000050018BF2E4C1BD14BE02E4820FA06F764
:1012900004EA070028431FD053EC102B9DED020BEE
:1012A00051EC100BFEF7ACFF53EC182BFFF742F993
:1012B00037D2002C03DD4FF48010F0400444BC43CF
:1012C00000252EE0332E07DCA6F114004FF0FF318D
:1012D00021FA00F73D4206D19DED020BBDEC028BD9
:1012E00002B0BDE8F08153EC102B9DED020B51ECE8
:1012F000100BFFF729F853EC182BFFF71BF910D24E
:10130000002C0DDD142E08BF641C09D0C6F134007A
:10131000012101FA00F02844A84238BF641C0546A8
:10132000BD43CDE902549DED020BD7E7000000005C
:101330009C7500883CE4377E00000000000000003F
:101340000000F03FFFFF0F002DE9F04D2DED040BE5
:101350002DED0E8B96B0DDE92550279CDDF890A091
:1013600025F0004624F00048BAF1000F14BF012117
:10137000002101EB4502FC4953184A1093422AD33D
:10138000002814BF0123002303EB44030B44F74957
:101390008B4220D358EA00019FEDF59B76D0DFF811
:1013A000D8B35D4503D1BAF1000F05D188E0BAF199
:1013B000000F08BF002100D0012101EB450111F50C
:1013C000001F08D8002814BF0121002101EB4401AF
:1013D00011F5001F0BD99DED261B9DED240B16B0BA
:1013E000BDEC0E8B04B0BDE8F04D00F073BE0027DD
:1013F000002DBCBFE149884521DAE1498845A8BFF5
:1014000002271CDAC3451ADCDE4901EB28511429F6
:1014100008DDC1F1340220FA02F101FA02F282423F
:101420000DD108E058B9C1F1140228FA02F101FA0D
:1014300002F2424503D101F00101C1F1020756EA6F
:101440000A0124D1002C22DA002D18BF022F01D06E
:10145000012F0AD0022000F087FE16B0BDEC0E8BE3
:1014600004B0BDE8F04D00F013BE022000F07CFE99
:1014700000F00EFE51EC100B81F0004141EC100B1E
:1014800016B0BDEC0E8B04B0BDE8F08D18E09FEDFA
:10149000BEAB9FEDBF8B002871D1B848804522D1EB
:1014A00005F1804010F5801008BFBAF1000F07D099
:1014B000B3450ADC002CA8BF9DED260BE0DA0DE059
:1014C000B0EE490AF0EE690ADAE7002C06DA9DED83
:1014D000260B51EC100B81F000416FE0AE487844D0
:1014E00090ED000BCCE7D8454DD1002C48DA2EB159
:1014F00086423AD1BAF1000F42D126E0BAF1000F8C
:1015000013D0022000F030FE00F0FEFD8DED020B46
:101510009DED240B8DED000B10EE900A039961F305
:101520001E0003909DED020BAAE78DED02AB9DED31
:10153000240B1AEE901A10EE900A8DED000B61F359
:101540001E0003909DED020B9AE78DED028B9DED41
:10155000240B18EE901A10EE900A8DED000B61F33B
:101560001E0003909DED020B8AE709DA9DED240B26
:1015700051EC190B53EC102BFEF75BFF1EE020E043
:101580009DED240B7CE786421BDAB4F1804F0DD031
:10159000A4F10050B0F1FF5013D1002D11DB9DEDEF
:1015A000240B51EC100B00F0E3FF07E09DED240B42
:1015B00053EC102B51EC100B00F0C2BC41EC100BA3
:1015C0005EE79DED240B51EC100B00F0D3FDBAF15A
:1015D000000FCDE90E0142D19FED710B46B3A6F18C
:1015E000E040B0F17F600CD05E4538D1002D00DACC
:1015F000A7B3022F0CBF01204FF0FF30FEF788FF8A
:10160000DCE7002D01DD002C0DDA002D01DD002CC2
:101610001FDB002D16DA002C14DB012F08BF9FED15
:10162000620B3FF42DAFB0EE4A0AF0EE6A0A27E7EC
:10163000022F18BF002D0CD0012F0AD1002DFFF66C
:101640001FAF06E0002DB8BF002C08DA012F3FF4D1
:1016500017AFB0EE480AF0EE680A11E71BE0012070
:1016600000EBE57050EA070115D0791EB0EE498A0B
:10167000F0EE698A084308BF9FED4D8B4E48002568
:10168000804570DD4D494E48884514DDB0420DDB84
:10169000002C19DB2FE0012000F066FD16B0BDEC38
:1016A0000E8B04B0BDE8F04D00F01EBDB34502DC6A
:1016B000002C09DC1FE0864202DA002C1BDA03E072
:1016C0005E452BDD002C16DD022000F04DFD00F004
:1016D0001BFD8DED020B53EC1A2B51EC180BFEF792
:1016E00036FECDE900010399019861F31E000390D5
:1016F0009DED020BC4E6022000F036FD00F014FD63
:1017000010EE901A18EE900A8DED020B8DED008B05
:1017100061F31E0003909DED020BB1E69DED0E0BF3
:1017200053EC192B51EC100BFEF70BFE9FED260B23
:10173000CDE9080153EC102B9DED080B51EC100B7B
:10174000FEF705FE9FED221B53EC112BFEF7FCFD6F
:101750009DED081B53EC112BFEF7F9FD9FED1E1BB1
:1017600053EC112B3CE08CE0FFFF1F00FFFF0F004C
:10177000000000000000F03F0000F03F0000F07F9C
:101780000000404301FCFFFF000000000000F07F6C
:101790000000000000000000EE110000000000004A
:1017A0000000000000000080000000000000F0FFCA
:1017B000000000000000F0BF0000E0410000F04326
:1017C000FFFFEF3F00000000000000000000D03FDE
:1017D000555555555555D53F000000000000E03FD8
:1017E000FEF7B2FD9DED080B41EC1A0B53EC102BEC
:1017F00051EC100BFEF7ABFD53EC1A2BFEF7A7FDD7
:1018000041EC1A0B9FEDFE0B53EC102B9DED080BDA
:1018100051EC100BFEF79BFD41EC1B0B9FEDFA0BFF
:1018200051EC1A0B53EC102BFEF791FD41EC1A0B07
:101830009FEDF70B53EC102B9DED080B51EC100BAB
:10184000FEF785FD53EC1A2BFEF77BFD41EC1A0BDE
:1018500051EC1B0B53EC1A2BFEF7D2FC0690CDE992
:1018600006519DED060B53EC1B2B51EC100BFEF7B4
:1018700068FD53EC1A2BFEF767FD41EC100B00F0EE
:10188000A1B90020B6F5801F0EDA9FEDE30B53ECF3
:10189000102B9DED0E0B51EC100BFEF758FDCDE912
:1018A0000E016FF034000E4600EB2650A0F2FF3719
:1018B000C6F31300DA4940F07F6646F0405688428E
:1018C000D8BF002408DDD7498142C8BF012403DC0A
:1018D0000024A6F580167F1CD348784400EBC40092
:1018E0000F9690ED00CB9DED0E0B53EC1C2B51ECA5
:1018F000100BFEF726FD9DED0E0B41EC1B0B53EC80
:101900001C2B51EC100BFEF77BFC41EC100B51EC47
:10191000190B53EC102BFEF78CFD41EC1D0B51EC19
:101920001B0B53EC1D2BFEF712FD41EC1A0BBF48AD
:101930008DED10AB7844109590ED000B4FF00050FA
:1019400040EA660000EB84408DED080B00F50020B6
:1019500009909DED080B53EC1C2B51EC100BFEF77E
:10196000F0FC9DED0E1B53EC112BFEF7EDFC41EC52
:10197000100B53EC102B9DED100B51EC100BFEF7E0
:10198000E6FC9DED080B41EC1C0B53EC102B9DED80
:10199000100B51EC100BFEF7DAFC53EC1B2BFEF78F
:1019A000D3FC53EC1C2BFEF7CCFC53EC1D2BFEF7A9
:1019B000CEFC41EC1C0B53EC1A2B51EC1A0BFEF72E
:1019C000C6FC41EC1B0B9A480621B0EE4B0AF0EE28
:1019D0006B0A784400F0E0FAB0EE401AF0EE601ABC
:1019E000B0EE41DAF0EE61DA53EC1B2B51EC1B0B3D
:1019F000FEF7ADFC53EC1D2BFEF7A9FC9DED100B83
:101A000041EC1B0B53EC1A2B51EC100BFEF7F8FBBF
:101A100053EC1C2BFEF79BFC53EC1B2BFEF7F0FB4F
:101A20009DED100B41EC1B0B53EC102B51EC100BEC
:101A3000FEF78DFC41EC1D0B9FED7FEB53EC1E2B55
:101A4000FEF7DEFB53EC1B2BFEF7DAFB0890CDE92B
:101A500008519DED080B53EC1E2B51EC100BFEF7BB
:101A600070FC53EC1D2BFEF76CFC53EC1B2BFEF7AC
:101A70006BFC9DED080B41EC1D0B53EC102B9DED09
:101A8000100B51EC100BFEF762FC41EC1B0B53ECFE
:101A90001A2B51EC1D0BFEF75AFC9DED080B41EC87
:101AA0001A0B53EC102B51EC1C0BFEF750FC53ECB3
:101AB0001A2BFEF7A5FB41EC1A0B51EC1B0B53EC58
:101AC0001A2BFEF79DFB0C90CDE90C519DED0C0BF4
:101AD00053EC1B2B51EC100BFEF733FC53EC1A2B81
:101AE000FEF732FC41EC1B0B9FED550B53EC102B1A
:101AF0009DED0C0B51EC100BFEF729FC41EC1A0B81
:101B00009FED510B51EC1B0B53EC102BFEF71FFC00
:101B100041EC1B0B9FED4E0B53EC102B9DED0C0B72
:101B200051EC100BFEF713FC53EC1B2BFEF768FB7C
:101B300041EC100B4848784400EBC40090ED001BCA
:101B400051EC100B53EC112BFEF75AFB41EC1B0B25
:101B50003846FEF7DDFCCDE9080153EC1B2B51ECB8
:101B60001A0BFEF74DFB41EC100B3C48784400EBA0
:101B7000C40090ED00CB51EC100B53EC1C2BFEF786
:101B80003FFB9DED081B53EC112BFEF739FB069034
:101B9000CDE906519DED080B53EC102B9DED060B86
:101BA00051EC100BFEF7CDFB53EC1C2BFEF7C9FBE1
:101BB00053EC1A2BFEF7C5FB53EC1B2BFEF7C4FBB3
:101BC00041EC100B9DED261B53EC102B8DED001BF3
:101BD00000959DED260B51EC100BFEF7B8FB9DED2B
:101BE000000B41EC1A0B53EC102B9DED260B51EC26
:101BF000100BFEF7A6FB9DED061B53EC112B2FE0FF
:101C0000000000604715F73FFE822B654715F73F40
:101C100044DF5DF80BAE543E00000000000040437E
:101C20008E9803007AB60B006A0D0000980D000034
:101C3000A20C0000000000000000000000000840AE
:101C4000000000E009C7EE3FFD033ADC09C7EE3FA4
:101C5000F5015B14E02F3EBE2E0B0000E80A0000E9
:101C6000FEF775FB53EC1A2BFEF7CAFA9DED060B37
:101C700041EC1A0B53EC102B9DED000B51EC100BAB
:101C8000FEF765FBCDE90C019DED0C0B51EC1A0B39
:101C900053EC102BFEF7B4FACDE902010C46AA4929
:101CA0008C422FDB611A084318D19DED0C0B53ECCD
:101CB000102B9DED020B51EC100BFEF742FB41EC9B
:101CC0001B0B9FEDA30B51EC1A0B53EC102BFEF7E3
:101CD00097FA53EC1B2BFEF72DFC2DD2022000F0BF
:101CE00043FA00F011FA10EE901A18EE900A8DEDFA
:101CF000020B8DED008B61F31E0003909DED020B36
:101D0000FFF7BEBB944A24F00041914214D393499B
:101D1000214408437FF4EFAC9DED0C0B53EC102BEA
:101D20009DED020B51EC100BFEF70BFB53EC1A2B45
:101D3000FEF700FC7FF6DFAC24F000408849894ABA
:101D4000002601EB205182422BDA481C4FF480110F
:101D500021FA00F02044844AC0F30A517A44A1F2E7
:101D6000FF3192ED000B814A8DED080BCA4020EA4D
:101D70000202C0F3130040F48010C1F1140120FAF4
:101D800001F60992002CB8BF76429DED080B53EC8A
:101D9000102B9DED0C0B51EC100BFEF7D2FACDE998
:101DA0000C019DED0C0B51EC1A0B53EC102BFEF7B4
:101DB00027FA9FED6F0B0890CDE9085153EC102BDB
:101DC0009DED080B51EC100BFEF7C1FA41EC1B0B1B
:101DD0009FED690B53EC102B9DED080B51EC100B94
:101DE000FEF7B5FA9DED0C0B41EC1C0B53EC102BE0
:101DF0009DED080B51EC100BFEF7A3FA53EC1A2BD8
:101E0000FEF7A2FA9FED5E1B53EC112BFEF79FFA33
:101E100053EC1C2BFEF7F4F941EC1A0B51EC1B0BA5
:101E200053EC1A2BFEF7ECF9CDE902019DED020B04
:101E300053EC1B2B51EC100BFEF783FA53EC1A2BCF
:101E4000FEF782FA9DED020B41EC1A0B53EC102BBE
:101E500051EC100BFEF77BFACDE908014A489DEDE5
:101E6000080B0521784400F097F89DED081B51EC14
:101E7000100B53EC112BFEF76AFA9DED021B53EC8D
:101E8000112BFEF761FACDE906019DED020B53EC33
:101E90001A2B51EC100BFEF75AFA53EC1A2BFEF7E3
:101EA000AFF99FED3B0B41EC1A0B53EC102B9DED62
:101EB000060B51EC100BFEF744FA9DED060B41ECBE
:101EC0001B0B53EC102B9DED020B51EC100BFEF78E
:101ED0003EFA53EC1B2BFEF7ACFA53EC1A2BFEF731
:101EE00030FA9DED021B53EC112BFEF72AFA53EC4E
:101EF000192BFEF729FACDE9020101EB0650011575
:101F00000029C8BF039015DC9DED020B324651EC51
:101F1000100BFEF7F8FBFEF7C3FF042808BF00F024
:101F200003F932469DED020B51EC100BFEF7EBFB73
:101F3000CDE902019DED020B51EC180B53EC102B77
:101F4000FEF705FAFFF73ABB0000904000000000E2
:101F5000FE822B654715973C00CC904000346F3FC4
:101F600001FCFFFF0000E03F70090000FFFF0F00D1
:101F700000000000432EE63F396CA80C615C20BED7
:101F8000EF39FAFE422EE63F400800000000000054
:101F9000000000000000004070B504462DED028BEB
:101FA0004D1E00EBC500B0EE408AF0EE608A90ED69
:101FB000000B35F0060017D053EC182B51EC100B2A
:101FC000FEF7C5F941EC100B6D1E04EBC50090ED5A
:101FD000001B51EC100B53EC112BFEF711F941ECE7
:101FE000100B35F00600E7D1022D36D0042D1CD0A1
:101FF000062D1CBFBDEC028B70BD53EC182B51ECB1
:10200000100BFEF7A4F994ED0A1B53EC112BFEF70D
:10201000F7F853EC182BFEF79AF994ED081B53ECE4
:10202000112BFEF7EDF841EC100B53EC182B51EC93
:10203000100BFEF78CF994ED061B53EC112BFEF7F9
:10204000DFF853EC182BFEF782F994ED040B53ECF8
:10205000102BFEF7D5F841EC100B53EC182B51EC7C
:10206000100BFEF774F994ED021B53EC112BFEF7E5
:10207000C7F853EC182BFEF76AF994ED001B53ECEC
:10208000112BFEF7BDF8BDEC028B41EC100B70BDBF
:102090009FED070B10B553EC102B9FED070B51EC88
:1020A000100BFEF7C6F941EC100B10BD000000004C
:1020B0000000000000000000000000000000F03FF1
:1020C00010B553EC102B51EC100BFEF799F841ECC6
:1020D000100B10BD10B553EC112B51EC100BFEF78B
:1020E0008FF841EC100B10BD9FED050B10B553ECB4
:1020F000102B51EC100BFEF79CF941EC100B10BDAE
:1021000000000000000000009FED050B10B553EC2F
:10211000102B51EC100BFEF71AF941EC100B10BD0F
:1021200000000000000000709FED050B10B553EC9F
:10213000102B51EC100BFEF70AF941EC100B10BDFF
:10214000000000000000001002E008C8121F08C1D3
:10215000002AFAD170477047002001E001C1121F28
:10216000002AFBD170470000014908607047000059
:10217000E000012082B0CDE9000121F00040019093
:102180009DED000B02B051EC100B70472DED0E8B46
:10219000FF20CC490860CC48006820F04060CA4964
:1021A0000860CA480068CA490843C8490860002056
:1021B000091D0860081D0068C5490843C349083166
:1021C0000860081D0068C2490843C0490C31086016
:1021D000BC481030006840F40020BA491031086053
:1021E00040F28360BB490860BA480C38006840F090
:1021F0002C00B8490C3908600846006840F001001E
:1022000008603420FEF7B8FDB348006840F00200D3
:10221000B1490860AC48006840F40000AA49086071
:10222000AD48006A40F00800AB490862A648406A21
:1022300040F40041A4484162A2481430006840F4D0
:102240008060A04914310860A448A5490860A548E9
:10225000006840F02000A449C1F804020846D0F804
:10226000040240F08070C1F804020846D0F8080269
:1022700040F00100C1F808020846D0F8080240F416
:102280008060C1F8080299480078964930310860AA
:102290001220FEF771FDFEF7E3FA9548006805226B
:1022A000B0FBF2F1481EB0F1807F00D31BE0481E66
:1022B0004FF0E022506150170F22002804DB130773
:1022C0001C0E8C4B1C5406E013071D0E8A4B00F0AD
:1022D0000F04241F1D5500BF00204FF0E022906125
:1022E0000720106100BFECE08448006802287CD120
:1022F000FEF79CFD8248006881494968084480498E
:1023000049680844032190FBF1F07E490860FEF71C
:1023100041FD7B490868FEF763FB0D20FEF7B0FD29
:102320000A20FEF7ADFD78490978A1F13000FEF7EB
:10233000EFF841EC1A0B9FED750B53EC102BFEF7E9
:1023400078F841EC180B73490978A1F13000FEF7D9
:10235000DFF841EC1C0B9FED700B53EC102BFEF7DC
:1023600068F841EC1A0B6E49097830396D4A1278D9
:10237000303A02EB820201EB4200FEF7C9F841EC71
:102380001B0B53EC1A2BFDF73BFF41EC190B53ECE5
:10239000182BFDF735FF644A03C2644890ED000B2B
:1023A00053EC102B604890ED000B51EC100BFEF736
:1023B000C1F808D845481430006840F0800043490F
:1023C0001431086007E041481430006820F08000B4
:1023D0003E491431086000204849086000BF01E010
:1023E00003E0401C52498842FBDB52480078012838
:1023F00067D151490968642251434F4A526802EB40
:10240000820201EB42014C4A92688818FEF780F87C
:102410009FED3E0B53EC102BFEF70BF8474A03C21F
:102420009FED471B484890ED000BFEF78DFFB0EE87
:1024300040EAF0EE60EA9FED350B53EC102B51ECC7
:102440001E0BFDF784FF41EC1C0B9FED400B53EC82
:10245000102B3A4890ED000B51EC100BFDF777FF75
:1024600053EC1C2BFDF7E5FF41EC1B0BB0EE4B0AC8
:10247000F0EE6B0AFEF72CFDB0EE40AAF0EE60AA7B
:102480009FED340B53EC102B51EC1A0BFDF75FFF53
:102490009FED320B53EC102BFDF759FF9FED310BE5
:1024A00053EC102BFDF7C5FF304A03C22F4890EDC7
:1024B000000BFEF7BDFE1D4880ED000B00201D49FE
:1024C000087011E730380240000802400004024062
:1024D000014000100C4C004000000240C0FF3F00D3
:1024E0000014024004220140002001406900012044
:1024F000DC00012000E400E018ED00E00C00012009
:102500008400012090000120DB0001200000000079
:1025100000005940DA0001200000000000002440C3
:10252000D9000120D80001207800012018000120E6
:10253000400D030030000120940001202000012004
:102540000000000000000040280001200000000002
:1025500000A88E40000000000000E03F00000000E6
:10256000008066406E861BF0F921094010000120B2
:1025700000B52DED048B83B041EC190BFEF7FCF890
:1025800041EC180B18EE100A18EE901A8DED008B26
:10259000002818BF0120084320F00040C0F17F60F0
:1025A00000F1E040C00F14D019EE101A19EE900A95
:1025B0008DED009B002918BF0121084320F0004049
:1025C000C0F17F6000F1E040C00F04BF0120FFF7C1
:1025D000CBFD51EC180B03B0BDEC048B00BD00002B
:1025E00000000000000001020304060708090000C3
:1025F0000000010203040000555555555555C53FCF
:102600007D6FEB0312D6D4BF5544880E55C1C93F28
:102610003B8F68B52882A4BF88B20175E0EF493FBF
:1026200009F7FD0DE13D023F4B2D8A1C273A03C0FF
:10263000C88A599CE52A004059018D1B6C06E6BFEB
:1026400082922EB1C5B8B33F000000000000F03FF9
:10265000000000000000F83F000000000000000043
:102660000000004003B8E23F00000000000000004E
:1026700006D0CF43EBFD4C3E033333333333E33FDC
:10268000FFAB6FDBB66DDB3F4D268F515555D53F08
:1026900001411DA96074D13F65DBC9934A86CD3FD6
:1026A000EF4E454A287ECA3F3E5555555555C53FC4
:1026B00093BDBE166CC166BF2CDE25AF6A56113FB6
:1026C000F16BD2C541BDBBBED0A4BE726937663EB8
:1026D0000000000000000000F826000800000120B3
:1026E000E400000048210008DC270008E400012085
:1026F0000404000058210008000000000000000051
:1027000000000000000000000000000000000000C9
:102710000000000000000000000000000000F03F8A
:10272000000000000000244000000000C80000007D
:1027300031564F4C54414A452053454E534F524514
:1027400053203D2000475241444F20454A45203DFB
:102750002000414E47554C4F2055415254203D20BA
:1027600000090E0F04050607080000000000000025
:102770000000000000000000000000003000000029
:1027800030000000300000000000000030000000B9
:102790003000000030000000E27D0000000000007A
:1027A0000000000000000000303030303000000039
:1027B0000000000000000000000000000000000019
:1027C0000000000000000000000000000000000009
:0C27D000000000000024F40000000000E5
:04000005080001DD11
:00000001FF
